:1000000025C049C048C047C046C045C044C043C0E1
:1000100042C041C040C051C43EC03DC03CC03BC0D6
:100020003AC039C038C037C036C035C034C033C01C
:1000300032C031C030C02FC02EC006C401020480BF
:1000400040201008040201085202470411241FBE78
:10005000CFEFD2E0DEBFCDBF11E0A0E0B1E0ECEC2D
:10006000FEE002C005900D92A032B107D9F721E061
:10007000A0E2B1E001C01D92A13AB207E1F710E0A1
:10008000C6E2D0E003C02197FE0118D7C432D107E1
:10009000D1F7E6D519C7B4CF80912001843014F090
:1000A00010922001809120016091200144E050E0F5
:1000B000481B510987FD5395062E000C770B6F5D89
:1000C0007E4F85E291E00BD210922001089585E2E7
:1000D00091E0B8D1892B29F085E291E0C9D18093D4
:1000E0002001089560E080E0C6D460E081E0C3D4E0
:1000F00060E082E0C0D461E080E0BDD461E081E0F6
:10010000BAD461E082E0B7D461E083E0B4D461E0C6
:1001100087E0B1D461E080E0FED461E081E0FBD40F
:1001200061E082E0F8D461E083E0F5D460E087E04C
:10013000F2D461E082E0EFD460E080E0ECD460E0F3
:1001400081E0E9D462E370E085E291E07AD16CE489
:1001500070E085E291E09FD167E670E085E291E092
:1001600093C1EF92FF920F931F93CF9381E06BD4D3
:100170008CE06CD46AE070E080E090E00FD48CE01A
:1001800065D48CE063D4835191407C018093240139
:1001900080E059D481E05AD46AE070E080E090E0D9
:1001A000FDD381E053D4BC01990F880B990B8FD5F7
:1001B00026E636E646EE5EE3EED556D58B01609335
:1001C0002201C0E06E3271050CF0C0E4C7010C974B
:1001D000829738F40135110524F061E087E09BD463
:1001E000C26089E0E81AF1088AE2E816F10418F41E
:1001F0000035110524F460E087E08DD4CD7F80E0E8
:1002000025D480E023D4BC01990F880B990B5DD5D0
:1002100023E23BED49E75EE3BED526D57B01609343
:1002200021016D5871096336710508F4C06882E0D8
:10023000CED4892B61F40E3211054CF08DE8E8160E
:10024000F10494F080EFE816F1040CF4C16081EA47
:10025000E816F1044CF060E083E05DD485EBE8162D
:10026000F1047CF4C46003C061E083E054D461E035
:1002700080E051D461E081E04ED461E082E04BD473
:1002800016C060E080E047D48AEBE816F10414F46D
:10029000CC60F0CF60E081E03ED484ECE816F1045D
:1002A00014F4CC61EACF60E082E035D4CC63C09333
:1002B000230164E670E080E090E0CF911F910F9100
:1002C000FF90EF906BC3CF92DF92EF92FF920F936C
:1002D0001F93CF93DF936C01EB017B01E40EF51EBE
:1002E00010E000E0CE15DF0561F06991D601ED91D7
:1002F000FC910190F081E02DC6010995080F191FAE
:10030000F1CFC801DF91CF911F910F91FF90EF9036
:10031000DF90CF900895FC0185A594A5891B990BCA
:100320000895FC0194A585A52FEF3FEF981740F4A1
:10033000DF01A90FB11D1C962C9130E09F5F94A79F
:10034000C9010895DC019C96EC919C979D962C9197
:10035000E21730F4E80FF92FF11D848590E008953D
:100360008FEF9FEF0895089598E09A95F1F708951B
:100370000895B0E0A8EC002409D032F40A94E1F723
:100380001197C9F7289408C0A89406C0A894CC99DE
:1003900001C028940000089508950894881F01C0A2
:1003A000880FB9F0D49A00000000000018F4000093
:1003B000D69802C0D69A00C0D7DFD498A89400007F
:1003C00000000000CC9BD5DF12F4882712C0CCDFE0
:1003D000E7CFD49A00000000D698C6DF9927882777
:1003E000D498A8940000CC9BC4DF7AF3CE9B81E024
:1003F000BBDF00000000D49A089581E00895CF93F8
:10040000DF93EC01862FC9DF811108C08FA5811110
:1004100002C083E08FA790E080E002C081E090E01E
:10042000DF91CF910895CF93DF93EC0140E080916D
:10043000620190916301DDD081E08883DF91CF91EB
:100440000895F1CFFC018081811107C08091530193
:1004500090915201891B990B0895E0916201F091EE
:10046000630182A193A120A131A1821B930B089566
:10047000FC018081811103C086E291E052CF80911E
:10048000620190916301C1C0E0916201F09163014A
:1004900076A765A70895E0916201F091630170ABC2
:1004A00067A70895E6E2F1E01382128288EE93E0F6
:1004B000A0E0B0E084839583A683B78384E091E0D5
:1004C00091838083109225010895FC018081811120
:1004D00003C086E291E093CF86E591E02EC0CF92F3
:1004E000DF92EF92FF920F931F93CF93DF936C01F4
:1004F000EB017B01E40EF51E10E000E0CE15DF05F8
:1005000031F06991C601E1DF080F191FF7CFC8016B
:10051000DF91CF911F910F91FF90EF90DF90CF90DF
:100520000895DC011C96ED91FC9182A193A120A17C
:1005300031A1821B930B08950895DC011C96ED9167
:10054000FC9186A197A1809768F486A197A19C0150
:100550002F5F3F4F37A326A3E80FF91F608381E089
:1005600090E0089590E080E00895CF93DF93DC0160
:100570001C96ED91FC9126A137A12032310510F592
:10058000A6A1B7A1C6A1D7A120E230E02A1B3B0B50
:100590004217530708F49A01DB01EC0FFD1FB90164
:1005A0006E0F7F1FE617F70719F04D914193FACFB1
:1005B000DC011C96ED91FC9186A197A1280F391FB3
:1005C00037A326A3DF91CF910895FC0113821282F5
:1005D00088EE93E0A0E0B0E084839583A683B783A0
:1005E00084E191E09183808384E691E0958784871C
:1005F0000895660F6093A2004093A1002FEFFC01C5
:1006000020A78CEB8093A5000895FC0120A131A1C7
:1006100082A193A12817390760F480A191A19C01C0
:100620002F5F3F4F31A320A3E80FF91F808190E097
:1006300008958FEF9FEF0895FC0184859585E5CFA0
:10064000FC0120A131A182A193A12817390738F418
:1006500080A191A1E80FF91F808190E008958FEFAC
:100660009FEF0895FC0184859585EACFCF93C091D3
:10067000A3008C2F8C7099F08FEF80938C01809168
:100680008D0190918E019F7790938E0180938D01C3
:100690008091A300846C8093A300CF910895C6FD40
:1006A00028C080918D0190918E0197FD22C0C7FFD7
:1006B0006FC0C1FFAFC02091880130918901809146
:1006C0008A0190918B012817390708F0A1C0809109
:1006D0008801909189019C012F5F3F4F30938901E0
:1006E000209388018C599E4FFC0180818093A0004B
:1006F0004FC0C0FF66C080918D0190918E0197FF21
:1007000029C080918D0190918E012091A000969535
:10071000982F88279795879588279370822B909399
:100720008E0180938D01E0918F01F09190013097BF
:1007300089F1109285011092840160918C01809161
:100740008D0190918E010995811124C087E08093DD
:10075000A400A3CF8091A00090E090938E0180939D
:100760008D0180918C018F5F80938C0180918D0130
:1007700090918E01897F9927803F9105A1F6809104
:100780008D0190918E01906890938E0180938D01E0
:1007900083E0DDCFC1FF10C010928B0110928A015F
:1007A000E0919301F0919401309709F0099510922E
:1007B000890110928801ECCF109287011092860176
:1007C000E7CFC1FF15C0E0919501F09196013097F8
:1007D00009F009958FEF80938C0180918D019091A4
:1007E0008E019F7790938E0180938D0180E453CF8B
:1007F000E0919101F0919201309761F3109285019F
:100800001092840180918601909187010995E2CF31
:1008100082E09DCF8091860190918701809790F42E
:1008200080918601909187019C012F5F3F4F30930B
:100830008701209386012091A0008C599E4FFC01D6
:100840002083A6CF86E083CF1F920F920FB60F9220
:1008500011242F933F934F935F936F937F938F93C5
:100860009F93AF93BF93EF93FF9300DFFF91EF91BF
:10087000BF91AF919F918F917F916F915F914F91B8
:100880003F912F910F900FBE0F901F90189586E506
:1008900091E09BCEE9ECF0E08081887F8083AAEC38
:1008A000B0E08C918C7F81608C938081877E808387
:1008B0008081887F8360808308951F920F920FB696
:1008C0000F9211242F933F938F939F93AF93BF93D6
:1008D0008091980190919901A0919A01B0919B010A
:1008E0003091970126E0230F2D3768F129E8230F77
:1008F0000396A11DB11D20939701809398019093B9
:100900009901A0939A01B0939B0180919C019091D1
:100910009D01A0919E01B0919F010196A11DB11D65
:1009200080939C0190939D01A0939E01B0939F01A1
:10093000BF91AF919F918F913F912F910F900FBEDB
:100940000F901F9018950296A11DB11DD4CF3FB7EF
:10095000F89480919C0190919D01A0919E01B0918D
:100960009F0122B708B600FE05C02F3F19F001967F
:10097000A11DB11D3FBFBA2FA92F982F8827BC01F9
:10098000CD01620F711D811D911D43E0660F771F20
:10099000881F991F4A95D1F708950895CF92DF9245
:1009A000EF92FF92CF93DF936B017C01D0DFEB01DD
:1009B000C114D104E104F10439F4DF91CF91FF9027
:1009C000EF90DF90CF900895E8DFC1DF6C1B7D0BC7
:1009D000683E734068F381E0C81AD108E108F10865
:1009E000C851DC4FF2CF789480B7836080BF83B763
:1009F000877F83BF83B7887F836083BF89B7816028
:100A000089BF48DFE9ECF0E08081887F808380E166
:100A10008093670084EA809368008CEF809366007F
:100A2000AAECB0E08C918C7F81608C938081877E72
:100A300080838081887F8360808385B1887F8660A2
:100A400085B92F9A08958093A001089586FD8F732C
:100A500028B19091A0019295990F907E2F71922BC1
:100A600098B999B1907C892B89B92E9A2E99FECF8D
:100A700086B197B10895CF93DF9386FF09C0982F71
:100A80009F738AE0993018F08BE0993009F0891B48
:100A9000E82FF0E0E45CFF4FE4918B30E1F083302D
:100AA000D0F08BE390E0AAE3B0E0C3E6D0E02E2FD5
:100AB0002095611117C04FB7F8943C9132233C93B5
:100AC000DC013C9132233C938881282328834FBF4B
:100AD000DF91CF91089588E390E0A7E3B0E0C2E60C
:100AE000D0E0E5CF623069F44FB7F8943C9123230E
:100AF0002C93DC012C912E2B2C938881E82BE883FE
:100B0000E6CF9FB7F8948881282328838C91E82B1F
:100B1000EC939FBFDDCFCF93DF9386FF09C0982F63
:100B20009F738AE0993018F08BE0993009F0891BA7
:100B3000E82FF0E0E45CFF4FE4918B30A1F08330CC
:100B400050F0863021F580B78F7380BFCBE3D0E0C3
:100B5000A3E6B0E00CC092E08530D9F480B78F7C7A
:100B600080BF913099F3C8E3D0E0A2E6B0E09E2FB9
:100B700090952FB7611126C0F894888189238883C6
:100B80008C9189238C932FBFDF91CF91089591E0B1
:100B9000E3CF843021F48FB58F738FBDE2CF8730E0
:100BA00019F48FB58F7CF9CF823031F48091CA006F
:100BB0008F738093CA00D5CF833099F68091CA0095
:100BC0008F7CF7CFF8948881E82BE883D9CF87FF13
:100BD00009C0982F9F778AE0993018F08BE0993000
:100BE00009F0891BE82FF0E0E45CFF4FE4918B30C3
:100BF00091F0833040F08630C1F480B78F7380BFAE
:100C0000A9E3B0E00AC092E0853089F480B78F7C18
:100C100080BF9130A9F3A6E3B0E08C91E82381E096
:100C200090E011F490E080E0089591E0EDCF843001
:100C300021F48FB58F738FBDECCF873019F48FB54A
:100C40008F7CF9CF823031F48091CA008F7380930A
:100C5000CA00DFCF8330E9F68091CA008F7CF7CFDE
:100C6000C2DE40DA7EDAFECF04D06894B1118DC0C6
:100C7000089570D088F09F5790F0B92F9927B751F9
:100C8000A0F0D1F0660F771F881F991F1AF0BA9550
:100C9000C9F712C0B13081F077D0B1E0089574C0C7
:100CA000672F782F8827B85F39F0B93FCCF3869546
:100CB00077956795B395D9F73EF4909580957095A3
:100CC00061957F4F8F4F9F4F0895E89409C097FB20
:100CD0003EF490958095709561957F4F8F4F9F4F13
:100CE0009923A9F0F92F96E9BB279395F695879557
:100CF00077956795B795F111F8CFFAF4BB0F11F41A
:100D000060FF1BC06F5F7F4F8F4F9F4F16C08823C0
:100D100011F096E911C0772321F09EE8872F762FF6
:100D200005C0662371F096E8862F70E060E02AF037
:100D30009A95660F771F881FDAF7880F9695879523
:100D400097F9089557FD9058440F551F59F05F3F8C
:100D500071F04795880F97FB991F61F09F3F79F0DD
:100D600087950895121613061406551FF2CF46955F
:100D7000F1DF08C0161617061806991FF1CF8695E1
:100D80007105610508940895E894BB2766277727C5
:100D9000CB0197F908950AD080C071D028F076D0A1
:100DA00018F0952309F062C067C0EFCFCBDFA8F33E
:100DB0009923D9F35523C9F3950F50E0551FAA275E
:100DC000EE27FF27BB2700240894679520F4E20F45
:100DD000F31FB41F0A1E220F331F441FAA1F66955C
:100DE000A9F7779530F4F30FB41F0A1E121E08F40A
:100DF0006395330F441FAA1F221F769599F7879595
:100E000020F4B40F0A1E121E631F440FAA1F221FD4
:100E1000331F8695A9F7862F712D602D11249F57BA
:100E200050408AF0E1F088234AF0EE0FFF1FBB1F0D
:100E3000661F771F881F91505040A9F79E3F5105AC
:100E400070F014C0A2CF5F3FECF3983EDCF38695C0
:100E500077956795B795F795E7959F5FC1F7FE2B57
:100E6000880F911D9695879597F9089597F99F6733
:100E700080E870E060E008959FEF80EC0895002422
:100E80000A941616170618060906089500240A94EF
:100E900012161306140605060895092E0394000C75
:100EA00011F4882352F0BB0F40F4BF2B11F460FF04
:100EB00004C06F5F7F4F8F4F9F4F0895EE0FFF1F4E
:0C0EC0000590F491E02D0994F894FFCF08
:100ECC0000000000FF0163018B019101A201B3013D
:100EDC00000000009D02B50291021C0332039C022B
:00000001FF
